{
  "_format": "hh-sol-artifact-1",
  "contractName": "Twitter",
  "sourceName": "contracts/Twitter.sol",
  "abi": [
    {
      "inputs": [],
      "stateMutability": "nonpayable",
      "type": "constructor"
    },
    {
      "anonymous": false,
      "inputs": [
        {
          "indexed": false,
          "internalType": "uint256",
          "name": "id",
          "type": "uint256"
        },
        {
          "indexed": false,
          "internalType": "bool",
          "name": "isDeleted",
          "type": "bool"
        }
      ],
      "name": "TweetDeleted",
      "type": "event"
    },
    {
      "anonymous": false,
      "inputs": [
        {
          "indexed": false,
          "internalType": "uint256",
          "name": "id",
          "type": "uint256"
        },
        {
          "indexed": false,
          "internalType": "bool",
          "name": "isEdited",
          "type": "bool"
        }
      ],
      "name": "TweetEdited",
      "type": "event"
    },
    {
      "anonymous": false,
      "inputs": [
        {
          "indexed": false,
          "internalType": "address",
          "name": "tweeter",
          "type": "address"
        },
        {
          "indexed": false,
          "internalType": "uint256",
          "name": "id",
          "type": "uint256"
        },
        {
          "indexed": false,
          "internalType": "string",
          "name": "tweetText",
          "type": "string"
        },
        {
          "indexed": false,
          "internalType": "string",
          "name": "tweetImg",
          "type": "string"
        },
        {
          "indexed": false,
          "internalType": "bool",
          "name": "isDeleted",
          "type": "bool"
        },
        {
          "indexed": false,
          "internalType": "bool",
          "name": "Edited",
          "type": "bool"
        },
        {
          "indexed": false,
          "internalType": "uint256",
          "name": "timestamp",
          "type": "uint256"
        }
      ],
      "name": "tweetCreated",
      "type": "event"
    },
    {
      "inputs": [
        {
          "internalType": "uint256",
          "name": "id",
          "type": "uint256"
        }
      ],
      "name": "GetTweetEdited",
      "outputs": [
        {
          "internalType": "bool",
          "name": "",
          "type": "bool"
        }
      ],
      "stateMutability": "view",
      "type": "function"
    },
    {
      "inputs": [
        {
          "internalType": "string",
          "name": "tweetText",
          "type": "string"
        },
        {
          "internalType": "string",
          "name": "tweetImg",
          "type": "string"
        }
      ],
      "name": "addTweet",
      "outputs": [],
      "stateMutability": "payable",
      "type": "function"
    },
    {
      "inputs": [
        {
          "internalType": "uint256",
          "name": "tweetId",
          "type": "uint256"
        },
        {
          "internalType": "bool",
          "name": "isDeleted",
          "type": "bool"
        }
      ],
      "name": "deleteTweet",
      "outputs": [],
      "stateMutability": "nonpayable",
      "type": "function"
    },
    {
      "inputs": [],
      "name": "getAllTweets",
      "outputs": [
        {
          "components": [
            {
              "internalType": "address",
              "name": "tweeter",
              "type": "address"
            },
            {
              "internalType": "uint256",
              "name": "id",
              "type": "uint256"
            },
            {
              "internalType": "string",
              "name": "tweetText",
              "type": "string"
            },
            {
              "internalType": "string",
              "name": "tweetImg",
              "type": "string"
            },
            {
              "internalType": "bool",
              "name": "isDeleted",
              "type": "bool"
            },
            {
              "internalType": "bool",
              "name": "Edited",
              "type": "bool"
            },
            {
              "internalType": "uint256",
              "name": "timestamp",
              "type": "uint256"
            }
          ],
          "internalType": "struct Twitter.tweet[]",
          "name": "",
          "type": "tuple[]"
        }
      ],
      "stateMutability": "view",
      "type": "function"
    },
    {
      "inputs": [],
      "name": "getMyTweets",
      "outputs": [
        {
          "components": [
            {
              "internalType": "address",
              "name": "tweeter",
              "type": "address"
            },
            {
              "internalType": "uint256",
              "name": "id",
              "type": "uint256"
            },
            {
              "internalType": "string",
              "name": "tweetText",
              "type": "string"
            },
            {
              "internalType": "string",
              "name": "tweetImg",
              "type": "string"
            },
            {
              "internalType": "bool",
              "name": "isDeleted",
              "type": "bool"
            },
            {
              "internalType": "bool",
              "name": "Edited",
              "type": "bool"
            },
            {
              "internalType": "uint256",
              "name": "timestamp",
              "type": "uint256"
            }
          ],
          "internalType": "struct Twitter.tweet[]",
          "name": "",
          "type": "tuple[]"
        }
      ],
      "stateMutability": "view",
      "type": "function"
    },
    {
      "inputs": [
        {
          "internalType": "uint256",
          "name": "id",
          "type": "uint256"
        }
      ],
      "name": "getTweet",
      "outputs": [
        {
          "internalType": "string",
          "name": "",
          "type": "string"
        },
        {
          "internalType": "string",
          "name": "",
          "type": "string"
        },
        {
          "internalType": "address",
          "name": "",
          "type": "address"
        }
      ],
      "stateMutability": "view",
      "type": "function"
    },
    {
      "inputs": [
        {
          "internalType": "address",
          "name": "userAddress",
          "type": "address"
        }
      ],
      "name": "getUser",
      "outputs": [
        {
          "components": [
            {
              "internalType": "string",
              "name": "name",
              "type": "string"
            },
            {
              "internalType": "string",
              "name": "bio",
              "type": "string"
            },
            {
              "internalType": "string",
              "name": "profileImg",
              "type": "string"
            },
            {
              "internalType": "string",
              "name": "profileBanner",
              "type": "string"
            }
          ],
          "internalType": "struct Twitter.user",
          "name": "",
          "type": "tuple"
        }
      ],
      "stateMutability": "view",
      "type": "function"
    },
    {
      "inputs": [],
      "name": "owner",
      "outputs": [
        {
          "internalType": "address",
          "name": "",
          "type": "address"
        }
      ],
      "stateMutability": "view",
      "type": "function"
    },
    {
      "inputs": [
        {
          "internalType": "uint256",
          "name": "tweetId",
          "type": "uint256"
        },
        {
          "internalType": "bool",
          "name": "isEdited",
          "type": "bool"
        }
      ],
      "name": "updateTweet",
      "outputs": [],
      "stateMutability": "nonpayable",
      "type": "function"
    },
    {
      "inputs": [
        {
          "internalType": "string",
          "name": "newName",
          "type": "string"
        },
        {
          "internalType": "string",
          "name": "newBio",
          "type": "string"
        },
        {
          "internalType": "string",
          "name": "newProfileImg",
          "type": "string"
        },
        {
          "internalType": "string",
          "name": "newProfileBanner",
          "type": "string"
        }
      ],
      "name": "updateUser",
      "outputs": [],
      "stateMutability": "nonpayable",
      "type": "function"
    }
  ],
  "bytecode": "0x608060405234801561001057600080fd5b50336000806101000a81548173ffffffffffffffffffffffffffffffffffffffff021916908373ffffffffffffffffffffffffffffffffffffffff1602179055506000600181905550612264806100686000396000f3fe6080604052600436106100915760003560e01c8063aefedbc211610059578063aefedbc21461016e578063b5c24a0114610199578063c3ad5ecb146101c2578063c5ddac7314610201578063f0312a371461023e57610091565b80633ebdb9961461009657806353256135146100bf5780636f77926b146100ea5780637e75b408146101275780638da5cb5b14610143575b600080fd5b3480156100a257600080fd5b506100bd60048036038101906100b89190611450565b610267565b005b3480156100cb57600080fd5b506100d4610377565b6040516100e191906116e4565b60405180910390f35b3480156100f657600080fd5b50610111600480360381019061010c9190611732565b6106ec565b60405161011e91906117d7565b60405180910390f35b610141600480360381019061013c919061192e565b61098d565b005b34801561014f57600080fd5b50610158610b6f565b60405161016591906119b5565b60405180910390f35b34801561017a57600080fd5b50610183610b93565b60405161019091906116e4565b60405180910390f35b3480156101a557600080fd5b506101c060048036038101906101bb91906119d0565b610f76565b005b3480156101ce57600080fd5b506101e960048036038101906101e49190611aa7565b611008565b6040516101f893929190611b1e565b60405180910390f35b34801561020d57600080fd5b5061022860048036038101906102239190611aa7565b611213565b6040516102359190611b72565b60405180910390f35b34801561024a57600080fd5b5061026560048036038101906102609190611450565b611240565b005b3373ffffffffffffffffffffffffffffffffffffffff166002600084815260200190815260200160002060000160009054906101000a900473ffffffffffffffffffffffffffffffffffffffff1673ffffffffffffffffffffffffffffffffffffffff161461030b576040517f08c379a000000000000000000000000000000000000000000000000000000000815260040161030290611bd9565b60405180910390fd5b806002600084815260200190815260200160002060040160006101000a81548160ff0219169083151502179055507f90c03fdb3ba756f41c01353982e90798d484dbdcc5571fb39be23b1fee59490a82600160405161036b929190611c08565b60405180910390a15050565b6060600060015467ffffffffffffffff81111561039757610396611803565b5b6040519080825280602002602001820160405280156103d057816020015b6103bd61134f565b8152602001906001900390816103b55790505b5090506000805b60015481101561063257600015156002600083815260200190815260200160002060040160009054906101000a900460ff1615150361061f57600260008281526020019081526020016000206040518060e00160405290816000820160009054906101000a900473ffffffffffffffffffffffffffffffffffffffff1673ffffffffffffffffffffffffffffffffffffffff1673ffffffffffffffffffffffffffffffffffffffff1681526020016001820154815260200160028201805461049e90611c60565b80601f01602080910402602001604051908101604052809291908181526020018280546104ca90611c60565b80156105175780601f106104ec57610100808354040283529160200191610517565b820191906000526020600020905b8154815290600101906020018083116104fa57829003601f168201915b5050505050815260200160038201805461053090611c60565b80601f016020809104026020016040519081016040528092919081815260200182805461055c90611c60565b80156105a95780601f1061057e576101008083540402835291602001916105a9565b820191906000526020600020905b81548152906001019060200180831161058c57829003601f168201915b505050505081526020016004820160009054906101000a900460ff161515151581526020016004820160019054906101000a900460ff1615151515815260200160058201548152505083838151811061060557610604611c91565b5b6020026020010181905250818061061b90611cef565b9250505b808061062a90611cef565b9150506103d7565b5060008167ffffffffffffffff81111561064f5761064e611803565b5b60405190808252806020026020018201604052801561068857816020015b61067561134f565b81526020019060019003908161066d5790505b50905060005b828110156106e2578381815181106106a9576106a8611c91565b5b60200260200101518282815181106106c4576106c3611c91565b5b602002602001018190525080806106da90611cef565b91505061068e565b5080935050505090565b6106f46113a6565b600360008373ffffffffffffffffffffffffffffffffffffffff1673ffffffffffffffffffffffffffffffffffffffff16815260200190815260200160002060405180608001604052908160008201805461074e90611c60565b80601f016020809104026020016040519081016040528092919081815260200182805461077a90611c60565b80156107c75780601f1061079c576101008083540402835291602001916107c7565b820191906000526020600020905b8154815290600101906020018083116107aa57829003601f168201915b505050505081526020016001820180546107e090611c60565b80601f016020809104026020016040519081016040528092919081815260200182805461080c90611c60565b80156108595780601f1061082e57610100808354040283529160200191610859565b820191906000526020600020905b81548152906001019060200180831161083c57829003601f168201915b5050505050815260200160028201805461087290611c60565b80601f016020809104026020016040519081016040528092919081815260200182805461089e90611c60565b80156108eb5780601f106108c0576101008083540402835291602001916108eb565b820191906000526020600020905b8154815290600101906020018083116108ce57829003601f168201915b5050505050815260200160038201805461090490611c60565b80601f016020809104026020016040519081016040528092919081815260200182805461093090611c60565b801561097d5780601f106109525761010080835404028352916020019161097d565b820191906000526020600020905b81548152906001019060200180831161096057829003601f168201915b5050505050815250509050919050565b662386f26fc1000034146109d6576040517f08c379a00000000000000000000000000000000000000000000000000000000081526004016109cd90611da9565b60405180910390fd5b6000600260006001548152602001908152602001600020905082816002019081610a009190611f75565b5081816003019081610a129190611f75565b50338160000160006101000a81548173ffffffffffffffffffffffffffffffffffffffff021916908373ffffffffffffffffffffffffffffffffffffffff160217905550600154816001018190555060008160040160006101000a81548160ff02191690831515021790555060018160040160016101000a81548160ff0219169083151502179055504281600501819055507f0c1413c7357634e9eee7d2e06bb336f83b2c65c9594ca9530f52abcdd9c28d5f3360015485856000600142604051610ae39796959493929190612047565b60405180910390a160016000815480929190610afe90611cef565b919050555060008054906101000a900473ffffffffffffffffffffffffffffffffffffffff1673ffffffffffffffffffffffffffffffffffffffff166108fc349081150290604051600060405180830381858888f19350505050158015610b69573d6000803e3d6000fd5b50505050565b60008054906101000a900473ffffffffffffffffffffffffffffffffffffffff1681565b6060600060015467ffffffffffffffff811115610bb357610bb2611803565b5b604051908082528060200260200182016040528015610bec57816020015b610bd961134f565b815260200190600190039081610bd15790505b5090506000805b600154811015610ebc573373ffffffffffffffffffffffffffffffffffffffff166002600083815260200190815260200160002060000160009054906101000a900473ffffffffffffffffffffffffffffffffffffffff1673ffffffffffffffffffffffffffffffffffffffff16148015610c955750600015156002600083815260200190815260200160002060040160009054906101000a900460ff161515145b15610ea957600260008281526020019081526020016000206040518060e00160405290816000820160009054906101000a900473ffffffffffffffffffffffffffffffffffffffff1673ffffffffffffffffffffffffffffffffffffffff1673ffffffffffffffffffffffffffffffffffffffff16815260200160018201548152602001600282018054610d2890611c60565b80601f0160208091040260200160405190810160405280929190818152602001828054610d5490611c60565b8015610da15780601f10610d7657610100808354040283529160200191610da1565b820191906000526020600020905b815481529060010190602001808311610d8457829003601f168201915b50505050508152602001600382018054610dba90611c60565b80601f0160208091040260200160405190810160405280929190818152602001828054610de690611c60565b8015610e335780601f10610e0857610100808354040283529160200191610e33565b820191906000526020600020905b815481529060010190602001808311610e1657829003601f168201915b505050505081526020016004820160009054906101000a900460ff161515151581526020016004820160019054906101000a900460ff16151515158152602001600582015481525050838381518110610e8f57610e8e611c91565b5b60200260200101819052508180610ea590611cef565b9250505b8080610eb490611cef565b915050610bf3565b5060008167ffffffffffffffff811115610ed957610ed8611803565b5b604051908082528060200260200182016040528015610f1257816020015b610eff61134f565b815260200190600190039081610ef75790505b50905060005b82811015610f6c57838181518110610f3357610f32611c91565b5b6020026020010151828281518110610f4e57610f4d611c91565b5b60200260200101819052508080610f6490611cef565b915050610f18565b5080935050505090565b6000600360003373ffffffffffffffffffffffffffffffffffffffff1673ffffffffffffffffffffffffffffffffffffffff168152602001908152602001600020905084816000019081610fca9190611f75565b5083816001019081610fdc9190611f75565b5082816002019081610fee9190611f75565b50818160030190816110009190611f75565b505050505050565b60608060006001548410611051576040517f08c379a000000000000000000000000000000000000000000000000000000000815260040161104890612110565b60405180910390fd5b6000600260008681526020019081526020016000209050600015158160040160009054906101000a900460ff161515146110c0576040517f08c379a00000000000000000000000000000000000000000000000000000000081526004016110b79061217c565b60405180910390fd5b80600201816003018260000160009054906101000a900473ffffffffffffffffffffffffffffffffffffffff168280546110f990611c60565b80601f016020809104026020016040519081016040528092919081815260200182805461112590611c60565b80156111725780601f1061114757610100808354040283529160200191611172565b820191906000526020600020905b81548152906001019060200180831161115557829003601f168201915b5050505050925081805461118590611c60565b80601f01602080910402602001604051908101604052809291908181526020018280546111b190611c60565b80156111fe5780601f106111d3576101008083540402835291602001916111fe565b820191906000526020600020905b8154815290600101906020018083116111e157829003601f168201915b50505050509150935093509350509193909250565b60006002600083815260200190815260200160002060040160019054906101000a900460ff169050919050565b3373ffffffffffffffffffffffffffffffffffffffff166002600084815260200190815260200160002060000160009054906101000a900473ffffffffffffffffffffffffffffffffffffffff1673ffffffffffffffffffffffffffffffffffffffff16146112e4576040517f08c379a00000000000000000000000000000000000000000000000000000000081526004016112db9061220e565b60405180910390fd5b806002600084815260200190815260200160002060040160006101000a81548160ff0219169083151502179055507f90c03fdb3ba756f41c01353982e90798d484dbdcc5571fb39be23b1fee59490a8282604051611343929190611c08565b60405180910390a15050565b6040518060e00160405280600073ffffffffffffffffffffffffffffffffffffffff168152602001600081526020016060815260200160608152602001600015158152602001600015158152602001600081525090565b6040518060800160405280606081526020016060815260200160608152602001606081525090565b6000604051905090565b600080fd5b600080fd5b6000819050919050565b6113f5816113e2565b811461140057600080fd5b50565b600081359050611412816113ec565b92915050565b60008115159050919050565b61142d81611418565b811461143857600080fd5b50565b60008135905061144a81611424565b92915050565b60008060408385031215611467576114666113d8565b5b600061147585828601611403565b92505060206114868582860161143b565b9150509250929050565b600081519050919050565b600082825260208201905092915050565b6000819050602082019050919050565b600073ffffffffffffffffffffffffffffffffffffffff82169050919050565b60006114e7826114bc565b9050919050565b6114f7816114dc565b82525050565b611506816113e2565b82525050565b600081519050919050565b600082825260208201905092915050565b60005b8381101561154657808201518184015260208101905061152b565b60008484015250505050565b6000601f19601f8301169050919050565b600061156e8261150c565b6115788185611517565b9350611588818560208601611528565b61159181611552565b840191505092915050565b6115a581611418565b82525050565b600060e0830160008301516115c360008601826114ee565b5060208301516115d660208601826114fd565b50604083015184820360408601526115ee8282611563565b915050606083015184820360608601526116088282611563565b915050608083015161161d608086018261159c565b5060a083015161163060a086018261159c565b5060c083015161164360c08601826114fd565b508091505092915050565b600061165a83836115ab565b905092915050565b6000602082019050919050565b600061167a82611490565b611684818561149b565b935083602082028501611696856114ac565b8060005b858110156116d257848403895281516116b3858261164e565b94506116be83611662565b925060208a0199505060018101905061169a565b50829750879550505050505092915050565b600060208201905081810360008301526116fe818461166f565b905092915050565b61170f816114dc565b811461171a57600080fd5b50565b60008135905061172c81611706565b92915050565b600060208284031215611748576117476113d8565b5b60006117568482850161171d565b91505092915050565b6000608083016000830151848203600086015261177c8282611563565b915050602083015184820360208601526117968282611563565b915050604083015184820360408601526117b08282611563565b915050606083015184820360608601526117ca8282611563565b9150508091505092915050565b600060208201905081810360008301526117f1818461175f565b905092915050565b600080fd5b600080fd5b7f4e487b7100000000000000000000000000000000000000000000000000000000600052604160045260246000fd5b61183b82611552565b810181811067ffffffffffffffff8211171561185a57611859611803565b5b80604052505050565b600061186d6113ce565b90506118798282611832565b919050565b600067ffffffffffffffff82111561189957611898611803565b5b6118a282611552565b9050602081019050919050565b82818337600083830152505050565b60006118d16118cc8461187e565b611863565b9050828152602081018484840111156118ed576118ec6117fe565b5b6118f88482856118af565b509392505050565b600082601f830112611915576119146117f9565b5b81356119258482602086016118be565b91505092915050565b60008060408385031215611945576119446113d8565b5b600083013567ffffffffffffffff811115611963576119626113dd565b5b61196f85828601611900565b925050602083013567ffffffffffffffff8111156119905761198f6113dd565b5b61199c85828601611900565b9150509250929050565b6119af816114dc565b82525050565b60006020820190506119ca60008301846119a6565b92915050565b600080600080608085870312156119ea576119e96113d8565b5b600085013567ffffffffffffffff811115611a0857611a076113dd565b5b611a1487828801611900565b945050602085013567ffffffffffffffff811115611a3557611a346113dd565b5b611a4187828801611900565b935050604085013567ffffffffffffffff811115611a6257611a616113dd565b5b611a6e87828801611900565b925050606085013567ffffffffffffffff811115611a8f57611a8e6113dd565b5b611a9b87828801611900565b91505092959194509250565b600060208284031215611abd57611abc6113d8565b5b6000611acb84828501611403565b91505092915050565b600082825260208201905092915050565b6000611af08261150c565b611afa8185611ad4565b9350611b0a818560208601611528565b611b1381611552565b840191505092915050565b60006060820190508181036000830152611b388186611ae5565b90508181036020830152611b4c8185611ae5565b9050611b5b60408301846119a6565b949350505050565b611b6c81611418565b82525050565b6000602082019050611b876000830184611b63565b92915050565b7f596f752063616e206f6e6c79206564697420796f7572206f776e207477656574600082015250565b6000611bc3602083611ad4565b9150611bce82611b8d565b602082019050919050565b60006020820190508181036000830152611bf281611bb6565b9050919050565b611c02816113e2565b82525050565b6000604082019050611c1d6000830185611bf9565b611c2a6020830184611b63565b9392505050565b7f4e487b7100000000000000000000000000000000000000000000000000000000600052602260045260246000fd5b60006002820490506001821680611c7857607f821691505b602082108103611c8b57611c8a611c31565b5b50919050565b7f4e487b7100000000000000000000000000000000000000000000000000000000600052603260045260246000fd5b7f4e487b7100000000000000000000000000000000000000000000000000000000600052601160045260246000fd5b6000611cfa826113e2565b91507fffffffffffffffffffffffffffffffffffffffffffffffffffffffffffffffff8203611d2c57611d2b611cc0565b5b600182019050919050565b7f506c65617365207375626d697420302e303120457468657220746f2075706c6f60008201527f616420796f757220547765657400000000000000000000000000000000000000602082015250565b6000611d93602d83611ad4565b9150611d9e82611d37565b604082019050919050565b60006020820190508181036000830152611dc281611d86565b9050919050565b60008190508160005260206000209050919050565b60006020601f8301049050919050565b600082821b905092915050565b600060088302611e2b7fffffffffffffffffffffffffffffffffffffffffffffffffffffffffffffffff82611dee565b611e358683611dee565b95508019841693508086168417925050509392505050565b6000819050919050565b6000611e72611e6d611e68846113e2565b611e4d565b6113e2565b9050919050565b6000819050919050565b611e8c83611e57565b611ea0611e9882611e79565b848454611dfb565b825550505050565b600090565b611eb5611ea8565b611ec0818484611e83565b505050565b5b81811015611ee457611ed9600082611ead565b600181019050611ec6565b5050565b601f821115611f2957611efa81611dc9565b611f0384611dde565b81016020851015611f12578190505b611f26611f1e85611dde565b830182611ec5565b50505b505050565b600082821c905092915050565b6000611f4c60001984600802611f2e565b1980831691505092915050565b6000611f658383611f3b565b9150826002028217905092915050565b611f7e8261150c565b67ffffffffffffffff811115611f9757611f96611803565b5b611fa18254611c60565b611fac828285611ee8565b600060209050601f831160018114611fdf5760008415611fcd578287015190505b611fd78582611f59565b86555061203f565b601f198416611fed86611dc9565b60005b8281101561201557848901518255600182019150602085019450602081019050611ff0565b86831015612032578489015161202e601f891682611f3b565b8355505b6001600288020188555050505b505050505050565b600060e08201905061205c600083018a6119a6565b6120696020830189611bf9565b818103604083015261207b8188611ae5565b9050818103606083015261208f8187611ae5565b905061209e6080830186611b63565b6120ab60a0830185611b63565b6120b860c0830184611bf9565b98975050505050505050565b7f4e6f207375636820547765657400000000000000000000000000000000000000600082015250565b60006120fa600d83611ad4565b9150612105826120c4565b602082019050919050565b60006020820190508181036000830152612129816120ed565b9050919050565b7f54776565742069732064656c6574656400000000000000000000000000000000600082015250565b6000612166601083611ad4565b915061217182612130565b602082019050919050565b6000602082019050818103600083015261219581612159565b9050919050565b7f596f752063616e206f6e6c792064656c65746520796f7572206f776e2074776560008201527f6574000000000000000000000000000000000000000000000000000000000000602082015250565b60006121f8602283611ad4565b91506122038261219c565b604082019050919050565b60006020820190508181036000830152612227816121eb565b905091905056fea26469706673582212209f8a3ef47dad5c57840b34f6888c1b63c228f0b92bfc2a6ad4e06a560389c49964736f6c63430008110033",
  "linkReferences": {},
  "deployedLinkReferences": {}
}